{
  "_format": "hh-sol-artifact-1",
  "contractName": "Bridge",
  "sourceName": "contracts/Bridge.sol",
  "abi": [
    {
      "inputs": [
        {
          "internalType": "uint8",
          "name": "chainID",
          "type": "uint8"
        },
        {
          "internalType": "address[]",
          "name": "initialRelayers",
          "type": "address[]"
        },
        {
          "internalType": "uint256",
          "name": "initialRelayerThreshold",
          "type": "uint256"
        },
        {
          "internalType": "uint256",
          "name": "fee",
          "type": "uint256"
        },
        {
          "internalType": "uint256",
          "name": "expiry",
          "type": "uint256"
        }
      ],
      "stateMutability": "nonpayable",
      "type": "constructor"
    },
    {
      "anonymous": false,
      "inputs": [
        {
          "indexed": true,
          "internalType": "uint8",
          "name": "destinationChainID",
          "type": "uint8"
        },
        {
          "indexed": true,
          "internalType": "bytes32",
          "name": "resourceID",
          "type": "bytes32"
        },
        {
          "indexed": true,
          "internalType": "uint64",
          "name": "depositNonce",
          "type": "uint64"
        }
      ],
      "name": "Deposit",
      "type": "event"
    },
    {
      "anonymous": false,
      "inputs": [
        {
          "indexed": false,
          "internalType": "address",
          "name": "account",
          "type": "address"
        }
      ],
      "name": "Paused",
      "type": "event"
    },
    {
      "anonymous": false,
      "inputs": [
        {
          "indexed": true,
          "internalType": "uint8",
          "name": "originChainID",
          "type": "uint8"
        },
        {
          "indexed": true,
          "internalType": "uint64",
          "name": "depositNonce",
          "type": "uint64"
        },
        {
          "indexed": true,
          "internalType": "enum CBBridge.ProposalStatus",
          "name": "status",
          "type": "uint8"
        },
        {
          "indexed": false,
          "internalType": "bytes32",
          "name": "resourceID",
          "type": "bytes32"
        },
        {
          "indexed": false,
          "internalType": "bytes32",
          "name": "dataHash",
          "type": "bytes32"
        }
      ],
      "name": "ProposalEvent",
      "type": "event"
    },
    {
      "anonymous": false,
      "inputs": [
        {
          "indexed": true,
          "internalType": "uint8",
          "name": "originChainID",
          "type": "uint8"
        },
        {
          "indexed": true,
          "internalType": "uint64",
          "name": "depositNonce",
          "type": "uint64"
        },
        {
          "indexed": true,
          "internalType": "enum CBBridge.ProposalStatus",
          "name": "status",
          "type": "uint8"
        },
        {
          "indexed": false,
          "internalType": "bytes32",
          "name": "resourceID",
          "type": "bytes32"
        }
      ],
      "name": "ProposalVote",
      "type": "event"
    },
    {
      "anonymous": false,
      "inputs": [
        {
          "indexed": true,
          "internalType": "address",
          "name": "relayer",
          "type": "address"
        }
      ],
      "name": "RelayerAdded",
      "type": "event"
    },
    {
      "anonymous": false,
      "inputs": [
        {
          "indexed": true,
          "internalType": "address",
          "name": "relayer",
          "type": "address"
        }
      ],
      "name": "RelayerRemoved",
      "type": "event"
    },
    {
      "anonymous": false,
      "inputs": [
        {
          "indexed": true,
          "internalType": "uint256",
          "name": "newThreshold",
          "type": "uint256"
        }
      ],
      "name": "RelayerThresholdChanged",
      "type": "event"
    },
    {
      "anonymous": false,
      "inputs": [
        {
          "indexed": true,
          "internalType": "bytes32",
          "name": "role",
          "type": "bytes32"
        },
        {
          "indexed": true,
          "internalType": "address",
          "name": "account",
          "type": "address"
        },
        {
          "indexed": true,
          "internalType": "address",
          "name": "sender",
          "type": "address"
        }
      ],
      "name": "RoleGranted",
      "type": "event"
    },
    {
      "anonymous": false,
      "inputs": [
        {
          "indexed": true,
          "internalType": "bytes32",
          "name": "role",
          "type": "bytes32"
        },
        {
          "indexed": true,
          "internalType": "address",
          "name": "account",
          "type": "address"
        },
        {
          "indexed": true,
          "internalType": "address",
          "name": "sender",
          "type": "address"
        }
      ],
      "name": "RoleRevoked",
      "type": "event"
    },
    {
      "anonymous": false,
      "inputs": [
        {
          "indexed": false,
          "internalType": "address",
          "name": "account",
          "type": "address"
        }
      ],
      "name": "Unpaused",
      "type": "event"
    },
    {
      "inputs": [],
      "name": "ADDRESS_LENGTH",
      "outputs": [
        {
          "internalType": "uint256",
          "name": "",
          "type": "uint256"
        }
      ],
      "stateMutability": "view",
      "type": "function"
    },
    {
      "inputs": [],
      "name": "DEFAULT_ADMIN_ROLE",
      "outputs": [
        {
          "internalType": "bytes32",
          "name": "",
          "type": "bytes32"
        }
      ],
      "stateMutability": "view",
      "type": "function"
    },
    {
      "inputs": [],
      "name": "RELAYER_ROLE",
      "outputs": [
        {
          "internalType": "bytes32",
          "name": "",
          "type": "bytes32"
        }
      ],
      "stateMutability": "view",
      "type": "function"
    },
    {
      "inputs": [],
      "name": "_chainID",
      "outputs": [
        {
          "internalType": "uint8",
          "name": "",
          "type": "uint8"
        }
      ],
      "stateMutability": "view",
      "type": "function"
    },
    {
      "inputs": [
        {
          "internalType": "uint8",
          "name": "",
          "type": "uint8"
        }
      ],
      "name": "_depositCounts",
      "outputs": [
        {
          "internalType": "uint64",
          "name": "",
          "type": "uint64"
        }
      ],
      "stateMutability": "view",
      "type": "function"
    },
    {
      "inputs": [
        {
          "internalType": "uint64",
          "name": "",
          "type": "uint64"
        },
        {
          "internalType": "uint8",
          "name": "",
          "type": "uint8"
        }
      ],
      "name": "_depositRecords",
      "outputs": [
        {
          "internalType": "bytes",
          "name": "",
          "type": "bytes"
        }
      ],
      "stateMutability": "view",
      "type": "function"
    },
    {
      "inputs": [],
      "name": "_expiry",
      "outputs": [
        {
          "internalType": "uint256",
          "name": "",
          "type": "uint256"
        }
      ],
      "stateMutability": "view",
      "type": "function"
    },
    {
      "inputs": [],
      "name": "_fee",
      "outputs": [
        {
          "internalType": "uint256",
          "name": "",
          "type": "uint256"
        }
      ],
      "stateMutability": "view",
      "type": "function"
    },
    {
      "inputs": [
        {
          "internalType": "uint72",
          "name": "",
          "type": "uint72"
        },
        {
          "internalType": "bytes32",
          "name": "",
          "type": "bytes32"
        },
        {
          "internalType": "address",
          "name": "",
          "type": "address"
        }
      ],
      "name": "_hasVotedOnProposal",
      "outputs": [
        {
          "internalType": "bool",
          "name": "",
          "type": "bool"
        }
      ],
      "stateMutability": "view",
      "type": "function"
    },
    {
      "inputs": [
        {
          "internalType": "uint72",
          "name": "",
          "type": "uint72"
        },
        {
          "internalType": "bytes32",
          "name": "",
          "type": "bytes32"
        }
      ],
      "name": "_proposals",
      "outputs": [
        {
          "internalType": "bytes32",
          "name": "_resourceID",
          "type": "bytes32"
        },
        {
          "internalType": "bytes32",
          "name": "_dataHash",
          "type": "bytes32"
        },
        {
          "internalType": "enum CBBridge.ProposalStatus",
          "name": "_status",
          "type": "uint8"
        },
        {
          "internalType": "uint256",
          "name": "_proposedBlock",
          "type": "uint256"
        }
      ],
      "stateMutability": "view",
      "type": "function"
    },
    {
      "inputs": [],
      "name": "_relayerThreshold",
      "outputs": [
        {
          "internalType": "uint256",
          "name": "",
          "type": "uint256"
        }
      ],
      "stateMutability": "view",
      "type": "function"
    },
    {
      "inputs": [
        {
          "internalType": "bytes32",
          "name": "",
          "type": "bytes32"
        }
      ],
      "name": "_resourceIDToHandlerAddress",
      "outputs": [
        {
          "internalType": "address",
          "name": "",
          "type": "address"
        }
      ],
      "stateMutability": "view",
      "type": "function"
    },
    {
      "inputs": [],
      "name": "_totalProposals",
      "outputs": [
        {
          "internalType": "uint256",
          "name": "",
          "type": "uint256"
        }
      ],
      "stateMutability": "view",
      "type": "function"
    },
    {
      "inputs": [],
      "name": "_totalRelayers",
      "outputs": [
        {
          "internalType": "uint256",
          "name": "",
          "type": "uint256"
        }
      ],
      "stateMutability": "view",
      "type": "function"
    },
    {
      "inputs": [
        {
          "internalType": "address",
          "name": "relayerAddress",
          "type": "address"
        }
      ],
      "name": "adminAddRelayer",
      "outputs": [],
      "stateMutability": "nonpayable",
      "type": "function"
    },
    {
      "inputs": [
        {
          "internalType": "uint256",
          "name": "newFee",
          "type": "uint256"
        }
      ],
      "name": "adminChangeFee",
      "outputs": [],
      "stateMutability": "nonpayable",
      "type": "function"
    },
    {
      "inputs": [
        {
          "internalType": "uint256",
          "name": "newThreshold",
          "type": "uint256"
        }
      ],
      "name": "adminChangeRelayerThreshold",
      "outputs": [],
      "stateMutability": "nonpayable",
      "type": "function"
    },
    {
      "inputs": [],
      "name": "adminPauseTransfers",
      "outputs": [],
      "stateMutability": "nonpayable",
      "type": "function"
    },
    {
      "inputs": [
        {
          "internalType": "address",
          "name": "relayerAddress",
          "type": "address"
        }
      ],
      "name": "adminRemoveRelayer",
      "outputs": [],
      "stateMutability": "nonpayable",
      "type": "function"
    },
    {
      "inputs": [
        {
          "internalType": "address",
          "name": "handlerAddress",
          "type": "address"
        },
        {
          "internalType": "address",
          "name": "tokenAddress",
          "type": "address"
        }
      ],
      "name": "adminSetBurnable",
      "outputs": [],
      "stateMutability": "nonpayable",
      "type": "function"
    },
    {
      "inputs": [
        {
          "internalType": "address",
          "name": "handlerAddress",
          "type": "address"
        },
        {
          "internalType": "bytes32",
          "name": "resourceID",
          "type": "bytes32"
        },
        {
          "internalType": "address",
          "name": "contractAddress",
          "type": "address"
        },
        {
          "internalType": "bytes4",
          "name": "depositFunctionSig",
          "type": "bytes4"
        },
        {
          "internalType": "bytes4",
          "name": "executeFunctionSig",
          "type": "bytes4"
        }
      ],
      "name": "adminSetGenericResource",
      "outputs": [],
      "stateMutability": "nonpayable",
      "type": "function"
    },
    {
      "inputs": [
        {
          "internalType": "address",
          "name": "handlerAddress",
          "type": "address"
        },
        {
          "internalType": "bytes32",
          "name": "resourceID",
          "type": "bytes32"
        },
        {
          "internalType": "address",
          "name": "tokenAddress",
          "type": "address"
        }
      ],
      "name": "adminSetResource",
      "outputs": [],
      "stateMutability": "nonpayable",
      "type": "function"
    },
    {
      "inputs": [],
      "name": "adminUnpauseTransfers",
      "outputs": [],
      "stateMutability": "nonpayable",
      "type": "function"
    },
    {
      "inputs": [
        {
          "internalType": "address",
          "name": "handlerAddress",
          "type": "address"
        },
        {
          "internalType": "address",
          "name": "tokenAddress",
          "type": "address"
        },
        {
          "internalType": "address",
          "name": "recipient",
          "type": "address"
        },
        {
          "internalType": "uint256",
          "name": "amountOrTokenID",
          "type": "uint256"
        }
      ],
      "name": "adminWithdraw",
      "outputs": [],
      "stateMutability": "nonpayable",
      "type": "function"
    },
    {
      "inputs": [
        {
          "internalType": "uint8",
          "name": "chainID",
          "type": "uint8"
        },
        {
          "internalType": "uint64",
          "name": "depositNonce",
          "type": "uint64"
        },
        {
          "internalType": "bytes32",
          "name": "dataHash",
          "type": "bytes32"
        }
      ],
      "name": "cancelProposal",
      "outputs": [],
      "stateMutability": "nonpayable",
      "type": "function"
    },
    {
      "inputs": [
        {
          "internalType": "uint8",
          "name": "destinationChainID",
          "type": "uint8"
        },
        {
          "internalType": "bytes32",
          "name": "resourceID",
          "type": "bytes32"
        },
        {
          "internalType": "bytes",
          "name": "data",
          "type": "bytes"
        }
      ],
      "name": "deposit",
      "outputs": [],
      "stateMutability": "payable",
      "type": "function"
    },
    {
      "inputs": [
        {
          "internalType": "uint8",
          "name": "chainID",
          "type": "uint8"
        },
        {
          "internalType": "uint64",
          "name": "depositNonce",
          "type": "uint64"
        },
        {
          "internalType": "bytes",
          "name": "data",
          "type": "bytes"
        },
        {
          "internalType": "bytes32",
          "name": "resourceID",
          "type": "bytes32"
        }
      ],
      "name": "executeProposal",
      "outputs": [],
      "stateMutability": "nonpayable",
      "type": "function"
    },
    {
      "inputs": [
        {
          "internalType": "uint8",
          "name": "originChainID",
          "type": "uint8"
        },
        {
          "internalType": "uint64",
          "name": "depositNonce",
          "type": "uint64"
        },
        {
          "internalType": "bytes32",
          "name": "dataHash",
          "type": "bytes32"
        }
      ],
      "name": "getProposal",
      "outputs": [
        {
          "components": [
            {
              "internalType": "bytes32",
              "name": "_resourceID",
              "type": "bytes32"
            },
            {
              "internalType": "bytes32",
              "name": "_dataHash",
              "type": "bytes32"
            },
            {
              "internalType": "address[]",
              "name": "_yesVotes",
              "type": "address[]"
            },
            {
              "internalType": "address[]",
              "name": "_noVotes",
              "type": "address[]"
            },
            {
              "internalType": "enum CBBridge.ProposalStatus",
              "name": "_status",
              "type": "uint8"
            },
            {
              "internalType": "uint256",
              "name": "_proposedBlock",
              "type": "uint256"
            }
          ],
          "internalType": "struct CBBridge.Proposal",
          "name": "",
          "type": "tuple"
        }
      ],
      "stateMutability": "view",
      "type": "function"
    },
    {
      "inputs": [
        {
          "internalType": "bytes32",
          "name": "role",
          "type": "bytes32"
        }
      ],
      "name": "getRoleAdmin",
      "outputs": [
        {
          "internalType": "bytes32",
          "name": "",
          "type": "bytes32"
        }
      ],
      "stateMutability": "view",
      "type": "function"
    },
    {
      "inputs": [
        {
          "internalType": "bytes32",
          "name": "role",
          "type": "bytes32"
        },
        {
          "internalType": "uint256",
          "name": "index",
          "type": "uint256"
        }
      ],
      "name": "getRoleMember",
      "outputs": [
        {
          "internalType": "address",
          "name": "",
          "type": "address"
        }
      ],
      "stateMutability": "view",
      "type": "function"
    },
    {
      "inputs": [
        {
          "internalType": "bytes32",
          "name": "role",
          "type": "bytes32"
        }
      ],
      "name": "getRoleMemberCount",
      "outputs": [
        {
          "internalType": "uint256",
          "name": "",
          "type": "uint256"
        }
      ],
      "stateMutability": "view",
      "type": "function"
    },
    {
      "inputs": [
        {
          "internalType": "bytes32",
          "name": "role",
          "type": "bytes32"
        },
        {
          "internalType": "address",
          "name": "account",
          "type": "address"
        }
      ],
      "name": "grantRole",
      "outputs": [],
      "stateMutability": "nonpayable",
      "type": "function"
    },
    {
      "inputs": [
        {
          "internalType": "bytes32",
          "name": "role",
          "type": "bytes32"
        },
        {
          "internalType": "address",
          "name": "account",
          "type": "address"
        }
      ],
      "name": "hasRole",
      "outputs": [
        {
          "internalType": "bool",
          "name": "",
          "type": "bool"
        }
      ],
      "stateMutability": "view",
      "type": "function"
    },
    {
      "inputs": [
        {
          "internalType": "address",
          "name": "relayer",
          "type": "address"
        }
      ],
      "name": "isRelayer",
      "outputs": [
        {
          "internalType": "bool",
          "name": "",
          "type": "bool"
        }
      ],
      "stateMutability": "view",
      "type": "function"
    },
    {
      "inputs": [],
      "name": "paused",
      "outputs": [
        {
          "internalType": "bool",
          "name": "",
          "type": "bool"
        }
      ],
      "stateMutability": "view",
      "type": "function"
    },
    {
      "inputs": [
        {
          "internalType": "uint256",
          "name": "destinationChainID",
          "type": "uint256"
        },
        {
          "internalType": "uint8",
          "name": "destinationBridgeChainID",
          "type": "uint8"
        }
      ],
      "name": "registerDestinationChainID",
      "outputs": [],
      "stateMutability": "nonpayable",
      "type": "function"
    },
    {
      "inputs": [
        {
          "internalType": "uint256",
          "name": "destinationChainID",
          "type": "uint256"
        },
        {
          "internalType": "bytes32",
          "name": "resourceId",
          "type": "bytes32"
        }
      ],
      "name": "registerERC20SResourceID",
      "outputs": [],
      "stateMutability": "nonpayable",
      "type": "function"
    },
    {
      "inputs": [
        {
          "internalType": "uint256",
          "name": "destinationChainID",
          "type": "uint256"
        },
        {
          "internalType": "bytes32",
          "name": "resourceId",
          "type": "bytes32"
        }
      ],
      "name": "registerERC721MoonResourceID",
      "outputs": [],
      "stateMutability": "nonpayable",
      "type": "function"
    },
    {
      "inputs": [
        {
          "internalType": "address",
          "name": "newAdmin",
          "type": "address"
        }
      ],
      "name": "renounceAdmin",
      "outputs": [],
      "stateMutability": "nonpayable",
      "type": "function"
    },
    {
      "inputs": [
        {
          "internalType": "bytes32",
          "name": "role",
          "type": "bytes32"
        },
        {
          "internalType": "address",
          "name": "account",
          "type": "address"
        }
      ],
      "name": "renounceRole",
      "outputs": [],
      "stateMutability": "nonpayable",
      "type": "function"
    },
    {
      "inputs": [
        {
          "internalType": "bytes32",
          "name": "role",
          "type": "bytes32"
        },
        {
          "internalType": "address",
          "name": "account",
          "type": "address"
        }
      ],
      "name": "revokeRole",
      "outputs": [],
      "stateMutability": "nonpayable",
      "type": "function"
    },
    {
      "inputs": [
        {
          "internalType": "uint256",
          "name": "destinationChainID",
          "type": "uint256"
        },
        {
          "internalType": "address",
          "name": "_recipient",
          "type": "address"
        },
        {
          "internalType": "uint256",
          "name": "_amount",
          "type": "uint256"
        }
      ],
      "name": "sendERC20SToken",
      "outputs": [],
      "stateMutability": "nonpayable",
      "type": "function"
    },
    {
      "inputs": [
        {
          "internalType": "uint256",
          "name": "destinationChainID",
          "type": "uint256"
        },
        {
          "internalType": "address",
          "name": "recipient",
          "type": "address"
        },
        {
          "internalType": "uint256",
          "name": "tokenId",
          "type": "uint256"
        }
      ],
      "name": "sendERC721MoonToken",
      "outputs": [],
      "stateMutability": "nonpayable",
      "type": "function"
    },
    {
      "inputs": [
        {
          "internalType": "address payable[]",
          "name": "addrs",
          "type": "address[]"
        },
        {
          "internalType": "uint256[]",
          "name": "amounts",
          "type": "uint256[]"
        }
      ],
      "name": "transferFunds",
      "outputs": [],
      "stateMutability": "nonpayable",
      "type": "function"
    },
    {
      "inputs": [
        {
          "internalType": "uint8",
          "name": "chainID",
          "type": "uint8"
        },
        {
          "internalType": "uint64",
          "name": "depositNonce",
          "type": "uint64"
        },
        {
          "internalType": "bytes32",
          "name": "resourceID",
          "type": "bytes32"
        },
        {
          "internalType": "bytes32",
          "name": "dataHash",
          "type": "bytes32"
        }
      ],
      "name": "voteProposal",
      "outputs": [],
      "stateMutability": "nonpayable",
      "type": "function"
    }
  ],
  "bytecode": "0x608060405260146010553480156200001657600080fd5b50604051620034913803806200349183398101604081905262000039916200031e565b6000805460ff1990811682556002805490911660ff88161790556003849055600683905560078290558590859085908590859062000078903362000110565b620000a46040516200008a90620003fb565b60405190819003902060006001600160e01b036200012916565b60005b8451811015620000ff57620000ec604051620000c390620003fb565b6040518091039020868381518110620000d857fe5b60200260200101516200013e60201b60201c565b60048054600190810190915501620000a7565b5050505050505050505050620004bc565b6200012582826001600160e01b036200019f16565b5050565b60009182526001602052604090912060020155565b6000828152600160205260409020600201546200017790620001686001600160e01b036200022316565b6001600160e01b036200022716565b620001105760405162461bcd60e51b8152600401620001969062000413565b60405180910390fd5b6000828152600160209081526040909120620001c691839062001ddf62000256821b17901c565b156200012557620001df6001600160e01b036200022316565b6001600160a01b0316816001600160a01b0316837f2f8788117e7eff1d82e926ec794901d17c78024a50270940304540a733656f0d60405160405180910390a45050565b3390565b600082815260016020908152604082206200024d91849062001d5162000276821b17901c565b90505b92915050565b60006200024d836001600160a01b0384166001600160e01b036200029616565b60006200024d836001600160a01b0384166001600160e01b03620002ee16565b6000620002ad83836001600160e01b03620002ee16565b620002e55750815460018181018455600084815260208082209093018490558454848252828601909352604090209190915562000250565b50600062000250565b60009081526001919091016020526040902054151590565b80516001600160a01b03811681146200025057600080fd5b600080600080600060a0868803121562000336578081fd5b85516200034381620004a9565b602087810151919650906001600160401b0381111562000361578283fd5b80880189601f82011262000373578384fd5b805191506200038c620003868362000489565b62000462565b82815283810190828501858502840186018d1015620003a9578687fd5b8693505b84841015620003d757620003c28d8262000306565b835260019390930192918501918501620003ad565b5060408b015160608c01516080909c01519a9d919c509a9998509650505050505050565b6b52454c415945525f524f4c4560a01b8152600c0190565b6020808252602f908201527f416363657373436f6e74726f6c3a2073656e646572206d75737420626520616e60408201526e0818591b5a5b881d1bc819dc985b9d608a1b606082015260800190565b6040518181016001600160401b03811182821017156200048157600080fd5b604052919050565b60006001600160401b038211156200049f578081fd5b5060209081020190565b60ff81168114620004b957600080fd5b50565b612fc580620004cc6000396000f3fe6080604052600436106102025760003560e01c806305e2ca171461020757806317f03ce51461021c5780631ff013f11461023c578063248a9ca31461025c5780632f2ff15d1461029257806336568abe146102b25780633ee7094a146102d25780634454b20d146102ff5780634603ae381461031f5780634b0b919d1461033f5780634e0560051461036c578063505987191461038c57806352e87273146103bc57806352f547c6146103dc578063541d5548146103fc5780635c975abb146104295780635e1fab0f1461043e57806360305d621461045e5780636b5f20eb14610473578063780cf004146104935780637e53f583146104b35780637febe63f146104d3578063802aabe8146104f357806380ae1c281461050857806384db809f1461051d5780638c0c26311461054a5780639010d07c1461056a57806391c404ac1461058a57806391d14854146105aa578063926d7d7f146105ca5780639a67b81a146105df5780639d5773e0146105ff5780639d82dd6314610614578063a217fddf14610634578063a9cf69fa14610649578063beab713114610676578063c5b37c2214610698578063c5ec8970146106ad578063ca15c873146106c2578063cb10f215146106e2578063cdb0f73a14610702578063d547741f14610722578063d7a9cd7914610742578063e8437ee714610757578063ffaac0eb14610777575b600080fd5b61021a6102153660046124aa565b61078c565b005b34801561022857600080fd5b5061021a6102373660046124f6565b6108f8565b34801561024857600080fd5b5061021a610257366004612533565b6109ea565b34801561026857600080fd5b5061027c610277366004612354565b610dfb565b6040516102899190612742565b60405180910390f35b34801561029e57600080fd5b5061021a6102ad36600461236c565b610e10565b3480156102be57600080fd5b5061021a6102cd36600461236c565b610e58565b3480156102de57600080fd5b506102f26102ed366004612411565b610e9a565b604051610289919061283c565b34801561030b57600080fd5b5061021a61031a366004612582565b610f3e565b34801561032b57600080fd5b5061021a61033a3660046122ec565b611135565b34801561034b57600080fd5b5061035f61035a36600461248f565b6111c3565b6040516102899190612e91565b34801561037857600080fd5b5061021a610387366004612354565b6111de565b34801561039857600080fd5b506103ac6103a7366004612445565b611219565b60405161028994939291906127a1565b3480156103c857600080fd5b5061021a6103d7366004612390565b611251565b3480156103e857600080fd5b5061021a6103f73660046123b1565b61126b565b34801561040857600080fd5b5061041c6104173660046121a0565b6113c3565b6040516102899190612737565b34801561043557600080fd5b5061041c6113e8565b34801561044a57600080fd5b5061021a6104593660046121a0565b6113f2565b34801561046a57600080fd5b5061027c611413565b34801561047f57600080fd5b5061021a61048e3660046123b1565b611419565b34801561049f57600080fd5b5061021a6104ae3660046121f4565b61143d565b3480156104bf57600080fd5b5061021a6104ce3660046123e8565b6114b0565b3480156104df57600080fd5b5061041c6104ee366004612470565b6114da565b3480156104ff57600080fd5b5061027c611500565b34801561051457600080fd5b5061021a611506565b34801561052957600080fd5b5061053d610538366004612354565b611518565b60405161028991906126ff565b34801561055657600080fd5b5061021a6105653660046121bc565b611533565b34801561057657600080fd5b5061053d610585366004612390565b6115a0565b34801561059657600080fd5b5061021a6105a5366004612354565b6115c5565b3480156105b657600080fd5b5061041c6105c536600461236c565b6115f4565b3480156105d657600080fd5b5061027c611612565b3480156105eb57600080fd5b5061021a6105fa366004612390565b611629565b34801561060b57600080fd5b5061027c611643565b34801561062057600080fd5b5061021a61062f3660046121a0565b611649565b34801561064057600080fd5b5061027c6116e8565b34801561065557600080fd5b506106696106643660046124f6565b6116ed565b6040516102899190612e18565b34801561068257600080fd5b5061068b61183d565b6040516102899190612ea5565b3480156106a457600080fd5b5061027c611846565b3480156106b957600080fd5b5061027c61184c565b3480156106ce57600080fd5b5061027c6106dd366004612354565b611852565b3480156106ee57600080fd5b5061021a6106fd366004612244565b611869565b34801561070e57600080fd5b5061021a61071d3660046121a0565b6118fa565b34801561072e57600080fd5b5061021a61073d36600461236c565b61198b565b34801561074e57600080fd5b5061027c6119c5565b34801561076357600080fd5b5061021a610772366004612285565b6119cb565b34801561078357600080fd5b5061021a611a62565b610794611a72565b60065434146107be5760405162461bcd60e51b81526004016107b5906129ff565b60405180910390fd5b6000838152600960205260409020546001600160a01b0316806107f35760405162461bcd60e51b81526004016107b590612ae1565b60ff8516600081815260086020908152604080832080546001600160401b038082166001019081166001600160401b031990921682179092558452600a8352818420948452939091529020610849908585611f9c565b506040516338995da960e01b815282906001600160a01b038216906338995da9906108829089908b90879033908c908c906004016127ed565b600060405180830381600087803b15801561089c57600080fd5b505af11580156108b0573d6000803e3d6000fd5b50505050816001600160401b0316868860ff167fdbb69440df8433824a026ef190652f29929eb64b4d1d5d2a69be8afe3e6eaed860405160405180910390a450505050505050565b610900611a95565b610100600160481b03600883901b1660ff8416176001600160481b0381166000908152600b6020908152604080832085845290915290206004808083015460ff169081111561094b57fe5b14156109695760405162461bcd60e51b81526004016107b590612a64565b60075461097a438360050154611adf565b116109975760405162461bcd60e51b81526004016107b590612be8565b6004818101805460ff191682179055815460018301546040516001600160401b0388169260ff8a1692600080516020612f50833981519152926109db929190612793565b60405180910390a45050505050565b6109f2611b21565b6109fa611a72565b610100600160481b03600884901b1660ff8516176001600160481b0381166000908152600b6020908152604080832085845282528083208684526009909252909120546001600160a01b0316610a625760405162461bcd60e51b81526004016107b590612d96565b60048082015460019160ff90911690811115610a7a57fe5b1115610a985760405162461bcd60e51b81526004016107b590612c7e565b6001600160481b0382166000908152600c60209081526040808320868452825280832033845290915290205460ff1615610ae45760405162461bcd60e51b81526004016107b59061296b565b60048082015460ff1690811115610af757fe5b610c6f576005805460019081019091556040805160c0810182528681526020810186905281518381528083018352909291830191816020016020820280368337505050815260408051600080825260208083018452808501929092526001838501819052436060909501949094526001600160481b0387168152600b82528281208882528252829020845181558482015193810193909355908301518051610ba5926002850192019061201a565b5060608201518051610bc191600384019160209091019061201a565b5060808201518160040160006101000a81548160ff02191690836004811115610be657fe5b021790555060a082015181600501559050503381600201600081548110610c0957fe5b600091825260209091200180546001600160a01b0319166001600160a01b039290921691909117905560015b856001600160401b03168760ff16600080516020612f508339815191528787604051610c62929190612793565b60405180910390a4610ce5565b600754610c80438360050154611adf565b1115610c9a576004818101805460ff191682179055610c35565b80600101548314610cbd5760405162461bcd60e51b81526004016107b590612d6b565b600281018054600181018255600091825260209091200180546001600160a01b031916331790555b60048181015460ff1681811115610cf857fe5b14610df3576001600160481b0382166000908152600c6020908152604080832086845282528083203384529091529020805460ff1916600117905560048082015460ff1690811115610d4657fe5b856001600160401b03168760ff167f25f8daaa4635a7729927ba3f5b3d59cc3320aca7c32c9db4e7ca7b957434364087604051610d839190612742565b60405180910390a46001600354111580610da35750600354600282015410155b15610df35760048101805460ff191660029081179091556040516001600160401b0387169060ff891690600080516020612f5083398151915290610dea9089908990612793565b60405180910390a45b505050505050565b60009081526001602052604090206002015490565b600082815260016020526040902060020154610e2e906105c5611b4c565b610e4a5760405162461bcd60e51b81526004016107b59061292e565b610e548282611b50565b5050565b610e60611b4c565b6001600160a01b0316816001600160a01b031614610e905760405162461bcd60e51b81526004016107b590612dc9565b610e548282611bbf565b600a6020908152600092835260408084208252918352918190208054825160026001831615610100026000190190921691909104601f810185900485028201850190935282815292909190830182828015610f365780601f10610f0b57610100808354040283529160200191610f36565b820191906000526020600020905b815481529060010190602001808311610f1957829003601f168201915b505050505081565b610f46611b21565b610f4e611a72565b60008181526009602090815260408083205490516001600160a01b0390911692610100600160481b03600889901b1660ff8a1617929091610f959185918991899101612683565b60408051601f1981840301815291815281516020928301206001600160481b0385166000908152600b84528281208282529093529082209092509060048083015460ff1690811115610fe357fe5b14156110015760405162461bcd60e51b81526004016107b590612885565b600260048083015460ff169081111561101657fe5b146110335760405162461bcd60e51b81526004016107b59061284f565b806001015482146110565760405162461bcd60e51b81526004016107b590612a2f565b6004818101805460ff1916600317905581546000818152600960205260409081902054905163712467f960e11b81526001600160a01b0390911692839263e248cff2926110a7928d918d91016127ca565b600060405180830381600087803b1580156110c157600080fd5b505af11580156110d5573d6000803e3d6000fd5b50505060048084015460ff1691508111156110ec57fe5b896001600160401b03168b60ff16600080516020612f5083398151915285600001548660010154604051611121929190612793565b60405180910390a450505050505050505050565b61113d611c2e565b60005b838110156111bc5784848281811061115457fe5b905060200201602081019061116991906121a0565b6001600160a01b03166108fc84848481811061118157fe5b905060200201359081150290604051600060405180830381858888f193505050501580156111b3573d6000803e3d6000fd5b50600101611140565b5050505050565b6008602052600090815260409020546001600160401b031681565b6111e6611c2e565b600381905560405181907fa20d6b84cd798a24038be305eff8a45ca82ef54a2aa2082005d8e14c0a4746c890600090a250565b600b60209081526000928352604080842090915290825290208054600182015460048301546005909301549192909160ff9091169084565b611259611c2e565b6000918252600e602052604090912055565b6000838152600d6020908152604080832054600e9092529091205460ff90911690816112a95760405162461bcd60e51b81526004016107b590612b9d565b806112c65760405162461bcd60e51b81526004016107b590612a98565b601054604051849190606087811b916112e7908590859085906020016126ab565b604051602081830303815290604052905060006060306001600160a01b031688888560405160240161131b93929190612eb3565b60408051601f198184030181529181526020820180516001600160e01b03166305e2ca1760e01b1790525161135091906126cb565b600060405180830381855af49150503d806000811461138b576040519150601f19603f3d011682016040523d82523d6000602084013e611390565b606091505b50909250905080826113b55760405162461bcd60e51b81526004016107b5919061283c565b505050505050505050505050565b60006113e26040516113d4906126e7565b6040518091039020836115f4565b92915050565b60005460ff165b90565b6113fa611c2e565b611405600082610e10565b611410600033610e58565b50565b60105481565b611438838383600f600088815260200190815260200160002054611c55565b505050565b611445611c2e565b604051636ce5768960e11b815284906001600160a01b0382169063d9caed129061147790879087908790600401612713565b600060405180830381600087803b15801561149157600080fd5b505af11580156114a5573d6000803e3d6000fd5b505050505050505050565b6114b8611c2e565b6000918252600d6020526040909120805460ff191660ff909216919091179055565b600c60209081526000938452604080852082529284528284209052825290205460ff1681565b60045481565b61150e611c2e565b611516611cf6565b565b6009602052600090815260409020546001600160a01b031681565b61153b611c2e565b6040516307b7ed9960e01b815282906001600160a01b038216906307b7ed99906115699085906004016126ff565b600060405180830381600087803b15801561158357600080fd5b505af1158015611597573d6000803e3d6000fd5b50505050505050565b60008281526001602052604081206115be908363ffffffff611d4516565b9392505050565b6115cd611c2e565b8060065414156115ef5760405162461bcd60e51b81526004016107b590612d34565b600655565b60008281526001602052604081206115be908363ffffffff611d5116565b60405161161e906126e7565b604051809103902081565b611631611c2e565b6000918252600f602052604090912055565b60055481565b611651611c2e565b61166e604051611660906126e7565b6040518091039020826115f4565b61168a5760405162461bcd60e51b81526004016107b5906129c8565b6116a7604051611699906126e7565b60405180910390208261198b565b6040516001600160a01b038216907f10e1f7ce9fd7d1b90a66d13a2ab3cb8dd7f29f3f8d520b143b063ccfbab6906b90600090a25060048054600019019055565b600081565b6116f561207b565b610100600160481b03600884901b1660ff8516176001600160481b0381166000908152600b60209081526040808320868452825291829020825160c081018452815481526001820154818401526002820180548551818602810186018752818152929593949386019383018282801561179757602002820191906000526020600020905b81546001600160a01b03168152600190910190602001808311611779575b50505050508152602001600382018054806020026020016040519081016040528092919081815260200182805480156117f957602002820191906000526020600020905b81546001600160a01b031681526001909101906020018083116117db575b505050918352505060048281015460209092019160ff169081111561181a57fe5b600481111561182557fe5b81526020016005820154815250509150509392505050565b60025460ff1681565b60065481565b60075481565b60008181526001602052604081206113e290611d66565b611871611c2e565b6000828152600960205260409081902080546001600160a01b0319166001600160a01b0386169081179091559051635c7d1b9b60e11b815284919063b8fa3736906118c2908690869060040161274b565b600060405180830381600087803b1580156118dc57600080fd5b505af11580156118f0573d6000803e3d6000fd5b5050505050505050565b611902611c2e565b611911604051611660906126e7565b1561192e5760405162461bcd60e51b81526004016107b590612c47565b61194b60405161193d906126e7565b604051809103902082610e10565b6040516001600160a01b038216907f03580ee9f53a62b7cb409a2cb56f9be87747dd15017afc5cef6eef321e4fb2c590600090a250600480546001019055565b6000828152600160205260409020600201546119a9906105c5611b4c565b610e905760405162461bcd60e51b81526004016107b590612b5f565b60035481565b6119d3611c2e565b6000848152600960205260409081902080546001600160a01b0319166001600160a01b0388169081179091559051635dd40c2d60e11b815286919063bba8185a90611a28908890889088908890600401612762565b600060405180830381600087803b158015611a4257600080fd5b505af1158015611a56573d6000803e3d6000fd5b50505050505050505050565b611a6a611c2e565b611516611d71565b60005460ff16156115165760405162461bcd60e51b81526004016107b590612c1d565b611aa06000336115f4565b80611ac35750611ac3604051611ab5906126e7565b6040518091039020336115f4565b6115165760405162461bcd60e51b81526004016107b5906128f7565b60006115be83836040518060400160405280601e81526020017f536166654d6174683a207375627472616374696f6e206f766572666c6f770000815250611db3565b611b30604051611ab5906126e7565b6115165760405162461bcd60e51b81526004016107b590612cc8565b3390565b6000828152600160205260409020611b6e908263ffffffff611ddf16565b15610e5457611b7b611b4c565b6001600160a01b0316816001600160a01b0316837f2f8788117e7eff1d82e926ec794901d17c78024a50270940304540a733656f0d60405160405180910390a45050565b6000828152600160205260409020611bdd908263ffffffff611df416565b15610e5457611bea611b4c565b6001600160a01b0316816001600160a01b0316837ff6391f5c32d9c69d2a47ea670b442974b53935d1edc7fd64eb21e047a839171b60405160405180910390a45050565b611c396000336115f4565b6115165760405162461bcd60e51b81526004016107b590612cfd565b6000848152600d602052604090205460ff1680611c845760405162461bcd60e51b81526004016107b590612b9d565b81611ca15760405162461bcd60e51b81526004016107b590612b16565b601054604051849190606087811b91611cc2908590859085906020016126ab565b604051602081830303815290604052905060006060306001600160a01b031687898560405160240161131b93929190612eb3565b611cfe611a72565b6000805460ff191660011790556040517f62e78cea01bee320cd4e420270b5ea74000d11b0c9f74754ebdbfc544b05a25890611d3b9033906126ff565b60405180910390a1565b60006115be8383611e09565b60006115be836001600160a01b038416611e4e565b60006113e282611e66565b611d79611e6a565b6000805460ff191690556040517f5db9ee0a495bf2e6ff9c91a7834c1ba4fdd244a5e8aa4e537bd38aeae4b073aa90611d3b9033906126ff565b60008184841115611dd75760405162461bcd60e51b81526004016107b5919061283c565b505050900390565b60006115be836001600160a01b038416611e8c565b60006115be836001600160a01b038416611ed6565b81546000908210611e2c5760405162461bcd60e51b81526004016107b5906128b5565b826000018281548110611e3b57fe5b9060005260206000200154905092915050565b60009081526001919091016020526040902054151590565b5490565b60005460ff166115165760405162461bcd60e51b81526004016107b59061299a565b6000611e988383611e4e565b611ece575081546001818101845560008481526020808220909301849055845484825282860190935260409020919091556113e2565b5060006113e2565b60008181526001830160205260408120548015611f925783546000198083019190810190600090879083908110611f0957fe5b9060005260206000200154905080876000018481548110611f2657fe5b600091825260208083209091019290925582815260018981019092526040902090840190558654879080611f5657fe5b600190038181906000526020600020016000905590558660010160008781526020019081526020016000206000905560019450505050506113e2565b60009150506113e2565b828054600181600116156101000203166002900490600052602060002090601f016020900481019282601f10611fdd5782800160ff1982351617855561200a565b8280016001018555821561200a579182015b8281111561200a578235825591602001919060010190611fef565b506120169291506120b3565b5090565b82805482825590600052602060002090810192821561206f579160200282015b8281111561206f57825182546001600160a01b0319166001600160a01b0390911617825560209092019160019091019061203a565b506120169291506120cd565b6040805160c0810182526000808252602082018190526060928201839052828201929092529060808201908152602001600081525090565b6113ef91905b8082111561201657600081556001016120b9565b6113ef91905b808211156120165780546001600160a01b03191681556001016120d3565b60008083601f840112612102578182fd5b5081356001600160401b03811115612118578182fd5b602083019150836020808302850101111561213257600080fd5b9250929050565b60008083601f84011261214a578182fd5b5081356001600160401b03811115612160578182fd5b60208301915083602082850101111561213257600080fd5b80356001600160401b03811681146113e257600080fd5b803560ff811681146113e257600080fd5b6000602082840312156121b1578081fd5b81356115be81612f0f565b600080604083850312156121ce578081fd5b82356121d981612f0f565b915060208301356121e981612f0f565b809150509250929050565b60008060008060808587031215612209578182fd5b843561221481612f0f565b9350602085013561222481612f0f565b9250604085013561223481612f0f565b9396929550929360600135925050565b600080600060608486031215612258578283fd5b833561226381612f0f565b925060208401359150604084013561227a81612f0f565b809150509250925092565b600080600080600060a0868803121561229c578081fd5b85356122a781612f0f565b94506020860135935060408601356122be81612f0f565b925060608601356122ce81612f24565b915060808601356122de81612f24565b809150509295509295909350565b60008060008060408587031215612301578384fd5b84356001600160401b0380821115612317578586fd5b612323888389016120f1565b9096509450602087013591508082111561233b578384fd5b50612348878288016120f1565b95989497509550505050565b600060208284031215612365578081fd5b5035919050565b6000806040838503121561237e578182fd5b8235915060208301356121e981612f0f565b600080604083850312156123a2578182fd5b50508035926020909101359150565b6000806000606084860312156123c5578081fd5b8335925060208401356123d781612f0f565b929592945050506040919091013590565b600080604083850312156123fa578182fd5b82359150602083013560ff811681146121e9578182fd5b60008060408385031215612423578182fd5b61242d8484612178565b915061243c846020850161218f565b90509250929050565b60008060408385031215612457578182fd5b823561246281612f3a565b946020939093013593505050565b600080600060608486031215612484578081fd5b833561226381612f3a565b6000602082840312156124a0578081fd5b6115be838361218f565b600080600080606085870312156124bf578182fd5b6124c9868661218f565b93506020850135925060408501356001600160401b038111156124ea578283fd5b61234887828801612139565b60008060006060848603121561250a578081fd5b612514858561218f565b92506125238560208601612178565b9150604084013590509250925092565b60008060008060808587031215612548578182fd5b612552868661218f565b935060208501356001600160401b038116811461256d578283fd5b93969395505050506040820135916060013590565b600080600080600060808688031215612599578283fd5b6125a3878761218f565b94506125b28760208801612178565b935060408601356001600160401b038111156125cc578384fd5b6125d888828901612139565b96999598509660600135949350505050565b6000815180845260208085019450808401835b838110156126225781516001600160a01b0316875295820195908201906001016125fd565b509495945050505050565b60008284528282602086013780602084860101526020601f19601f85011685010190509392505050565b6000815180845261266f816020860160208601612ed5565b601f01601f19169290920160200192915050565b606084901b6001600160601b0319168152600082846014840137910160140190815292915050565b92835260208301919091526001600160601b031916604082015260540190565b600082516126dd818460208701612ed5565b9190910192915050565b6b52454c415945525f524f4c4560a01b8152600c0190565b6001600160a01b0391909116815260200190565b6001600160a01b039384168152919092166020820152604081019190915260600190565b901515815260200190565b90815260200190565b9182526001600160a01b0316602082015260400190565b9384526001600160a01b039290921660208401526001600160e01b0319908116604084015216606082015260800190565b918252602082015260400190565b84815260208101849052608081016127b884612f05565b60408201939093526060015292915050565b6000848252604060208301526127e460408301848661262d565b95945050505050565b86815260ff861660208201526001600160401b03851660408201526001600160a01b038416606082015260a060808201819052600090612830908301848661262d565b98975050505050505050565b6000602082526115be6020830184612657565b6020808252601c908201527b1c1c9bdc1bdcd85b08185b1c9958591e481d1c985b9cd9995c9c995960221b604082015260600190565b60208082526016908201527570726f706f73616c206973206e6f742061637469766560501b604082015260600190565b60208082526022908201527f456e756d657261626c655365743a20696e646578206f7574206f6620626f756e604082015261647360f01b606082015260800190565b6020808252601e908201527f73656e646572206973206e6f742072656c61796572206f722061646d696e0000604082015260600190565b6020808252602f90820152600080516020612f7083398151915260408201526e0818591b5a5b881d1bc819dc985b9d608a1b606082015260800190565b6020808252601590820152741c995b185e595c88185b1c9958591e481d9bdd1959605a1b604082015260600190565b60208082526014908201527314185d5cd8589b194e881b9bdd081c185d5cd95960621b604082015260600190565b6020808252601f908201527f6164647220646f65736e277420686176652072656c6179657220726f6c652100604082015260600190565b602080825260169082015275125b98dbdc9c9958dd08199959481cdd5c1c1b1a595960521b604082015260600190565b6020808252601b908201527a0c8c2e8c240c8decae6dc4ee840dac2e8c6d040c8c2e8c2d0c2e6d602b1b604082015260600190565b6020808252601a9082015279141c9bdc1bdcd85b08185b1c9958591e4818d85b98d95b1b195960321b604082015260600190565b60208082526029908201527f455243323053207265736f75726365496420686173206e6f74206265656e20726040820152681959da5cdd195c995960ba1b606082015260800190565b6020808252818101527f7265736f757263654944206e6f74206d617070656420746f2068616e646c6572604082015260600190565b60208082526029908201527f455243373231207265736f75726365496420686173206e6f74206265656e20726040820152681959da5cdd195c995960ba1b606082015260800190565b6020808252603090820152600080516020612f7083398151915260408201526f2061646d696e20746f207265766f6b6560801b606082015260800190565b6020808252602b908201527f44657374696e6174696f6e20436861696e494420686173206e6f74206265656e60408201526a081c9959da5cdd195c995960aa1b606082015260800190565b6020808252818101527f50726f706f73616c206e6f7420617420657870697279207468726573686f6c64604082015260600190565b60208082526010908201526f14185d5cd8589b194e881c185d5cd95960821b604082015260600190565b6020808252601e908201527f6164647220616c7265616479206861732072656c6179657220726f6c65210000604082015260600190565b6020808252602a908201527f70726f706f73616c20616c7265616479207061737365642f65786563757465646040820152690bd8d85b98d95b1b195960b21b606082015260800190565b6020808252818101527f73656e64657220646f65736e277420686176652072656c6179657220726f6c65604082015260600190565b6020808252601e908201527f73656e64657220646f65736e277420686176652061646d696e20726f6c650000604082015260600190565b6020808252601f908201527f43757272656e742066656520697320657175616c20746f206e65772066656500604082015260600190565b6020808252601190820152700c8c2e8c2d0c2e6d040dad2e6dac2e8c6d607b1b604082015260600190565b6020808252601990820152781b9bc81a185b991b195c88199bdc881c995cdbdd5c98d95251603a1b604082015260600190565b6020808252602f908201527f416363657373436f6e74726f6c3a2063616e206f6e6c792072656e6f756e636560408201526e103937b632b9903337b91039b2b63360891b606082015260800190565b6000602082528251602083015260208301516040830152604083015160c06060840152612e4860e08401826125ea565b6060850151848203601f190160808601529150612e6581836125ea565b60808601519250612e7583612f05565b8260a086015260a086015160c086015280935050505092915050565b6001600160401b0391909116815260200190565b60ff91909116815260200190565b600060ff85168252836020830152606060408301526127e46060830184612657565b60005b83811015612ef0578181015183820152602001612ed8565b83811115612eff576000848401525b50505050565b6005811061141057fe5b6001600160a01b038116811461141057600080fd5b6001600160e01b03198116811461141057600080fd5b6001600160481b038116811461141057600080fdfe803c5a12f6bde629cea32e63d4b92d1b560816a6fb72e939d3c89e1cab650417416363657373436f6e74726f6c3a2073656e646572206d75737420626520616ea2646970667358221220f65b77232f2d1c256b4e6ffc9081c31e824ba47f7b07228a50881c46449c412964736f6c63430006040033",
  "linkReferences": {},
  "deployedLinkReferences": {}
}